{
  "contractName": "BullBear",
  "abi": [
    {
      "inputs": [
        {
          "internalType": "uint256",
          "name": "updateInterval",
          "type": "uint256"
        },
        {
          "internalType": "address",
          "name": "_priceFeed",
          "type": "address"
        }
      ],
      "stateMutability": "nonpayable",
      "type": "constructor"
    },
    {
      "inputs": [
        {
          "internalType": "address",
          "name": "have",
          "type": "address"
        },
        {
          "internalType": "address",
          "name": "want",
          "type": "address"
        }
      ],
      "name": "OnlyCoordinatorCanFulfill",
      "type": "error"
    },
    {
      "anonymous": false,
      "inputs": [
        {
          "indexed": true,
          "internalType": "address",
          "name": "owner",
          "type": "address"
        },
        {
          "indexed": true,
          "internalType": "address",
          "name": "approved",
          "type": "address"
        },
        {
          "indexed": true,
          "internalType": "uint256",
          "name": "tokenId",
          "type": "uint256"
        }
      ],
      "name": "Approval",
      "type": "event"
    },
    {
      "anonymous": false,
      "inputs": [
        {
          "indexed": true,
          "internalType": "address",
          "name": "owner",
          "type": "address"
        },
        {
          "indexed": true,
          "internalType": "address",
          "name": "operator",
          "type": "address"
        },
        {
          "indexed": false,
          "internalType": "bool",
          "name": "approved",
          "type": "bool"
        }
      ],
      "name": "ApprovalForAll",
      "type": "event"
    },
    {
      "anonymous": false,
      "inputs": [
        {
          "indexed": true,
          "internalType": "address",
          "name": "previousOwner",
          "type": "address"
        },
        {
          "indexed": true,
          "internalType": "address",
          "name": "newOwner",
          "type": "address"
        }
      ],
      "name": "OwnershipTransferred",
      "type": "event"
    },
    {
      "anonymous": false,
      "inputs": [
        {
          "indexed": false,
          "internalType": "string",
          "name": "marketTrend",
          "type": "string"
        }
      ],
      "name": "TokensUpdated",
      "type": "event"
    },
    {
      "anonymous": false,
      "inputs": [
        {
          "indexed": true,
          "internalType": "address",
          "name": "from",
          "type": "address"
        },
        {
          "indexed": true,
          "internalType": "address",
          "name": "to",
          "type": "address"
        },
        {
          "indexed": true,
          "internalType": "uint256",
          "name": "tokenId",
          "type": "uint256"
        }
      ],
      "name": "Transfer",
      "type": "event"
    },
    {
      "inputs": [],
      "name": "COORDINATOR",
      "outputs": [
        {
          "internalType": "contract VRFCoordinatorV2Interface",
          "name": "",
          "type": "address"
        }
      ],
      "stateMutability": "view",
      "type": "function"
    },
    {
      "inputs": [
        {
          "internalType": "address",
          "name": "to",
          "type": "address"
        },
        {
          "internalType": "uint256",
          "name": "tokenId",
          "type": "uint256"
        }
      ],
      "name": "approve",
      "outputs": [],
      "stateMutability": "nonpayable",
      "type": "function"
    },
    {
      "inputs": [
        {
          "internalType": "address",
          "name": "owner",
          "type": "address"
        }
      ],
      "name": "balanceOf",
      "outputs": [
        {
          "internalType": "uint256",
          "name": "",
          "type": "uint256"
        }
      ],
      "stateMutability": "view",
      "type": "function"
    },
    {
      "inputs": [],
      "name": "callbackGasLimit",
      "outputs": [
        {
          "internalType": "uint32",
          "name": "",
          "type": "uint32"
        }
      ],
      "stateMutability": "view",
      "type": "function"
    },
    {
      "inputs": [],
      "name": "currentMarketTrend",
      "outputs": [
        {
          "internalType": "enum BullBear.MarketTrend",
          "name": "",
          "type": "uint8"
        }
      ],
      "stateMutability": "view",
      "type": "function"
    },
    {
      "inputs": [],
      "name": "currentPrice",
      "outputs": [
        {
          "internalType": "int256",
          "name": "",
          "type": "int256"
        }
      ],
      "stateMutability": "view",
      "type": "function"
    },
    {
      "inputs": [
        {
          "internalType": "uint256",
          "name": "tokenId",
          "type": "uint256"
        }
      ],
      "name": "getApproved",
      "outputs": [
        {
          "internalType": "address",
          "name": "",
          "type": "address"
        }
      ],
      "stateMutability": "view",
      "type": "function"
    },
    {
      "inputs": [],
      "name": "interval",
      "outputs": [
        {
          "internalType": "uint256",
          "name": "",
          "type": "uint256"
        }
      ],
      "stateMutability": "view",
      "type": "function"
    },
    {
      "inputs": [
        {
          "internalType": "address",
          "name": "owner",
          "type": "address"
        },
        {
          "internalType": "address",
          "name": "operator",
          "type": "address"
        }
      ],
      "name": "isApprovedForAll",
      "outputs": [
        {
          "internalType": "bool",
          "name": "",
          "type": "bool"
        }
      ],
      "stateMutability": "view",
      "type": "function"
    },
    {
      "inputs": [],
      "name": "lastTimeStamp",
      "outputs": [
        {
          "internalType": "uint256",
          "name": "",
          "type": "uint256"
        }
      ],
      "stateMutability": "view",
      "type": "function"
    },
    {
      "inputs": [],
      "name": "name",
      "outputs": [
        {
          "internalType": "string",
          "name": "",
          "type": "string"
        }
      ],
      "stateMutability": "view",
      "type": "function"
    },
    {
      "inputs": [],
      "name": "owner",
      "outputs": [
        {
          "internalType": "address",
          "name": "",
          "type": "address"
        }
      ],
      "stateMutability": "view",
      "type": "function"
    },
    {
      "inputs": [
        {
          "internalType": "uint256",
          "name": "tokenId",
          "type": "uint256"
        }
      ],
      "name": "ownerOf",
      "outputs": [
        {
          "internalType": "address",
          "name": "",
          "type": "address"
        }
      ],
      "stateMutability": "view",
      "type": "function"
    },
    {
      "inputs": [],
      "name": "priceFeed",
      "outputs": [
        {
          "internalType": "contract AggregatorV3Interface",
          "name": "",
          "type": "address"
        }
      ],
      "stateMutability": "view",
      "type": "function"
    },
    {
      "inputs": [
        {
          "internalType": "uint256",
          "name": "requestId",
          "type": "uint256"
        },
        {
          "internalType": "uint256[]",
          "name": "randomWords",
          "type": "uint256[]"
        }
      ],
      "name": "rawFulfillRandomWords",
      "outputs": [],
      "stateMutability": "nonpayable",
      "type": "function"
    },
    {
      "inputs": [],
      "name": "renounceOwnership",
      "outputs": [],
      "stateMutability": "nonpayable",
      "type": "function"
    },
    {
      "inputs": [
        {
          "internalType": "uint256",
          "name": "",
          "type": "uint256"
        }
      ],
      "name": "s_randomWords",
      "outputs": [
        {
          "internalType": "uint256",
          "name": "",
          "type": "uint256"
        }
      ],
      "stateMutability": "view",
      "type": "function"
    },
    {
      "inputs": [],
      "name": "s_requestId",
      "outputs": [
        {
          "internalType": "uint256",
          "name": "",
          "type": "uint256"
        }
      ],
      "stateMutability": "view",
      "type": "function"
    },
    {
      "inputs": [],
      "name": "s_subscriptionId",
      "outputs": [
        {
          "internalType": "uint64",
          "name": "",
          "type": "uint64"
        }
      ],
      "stateMutability": "view",
      "type": "function"
    },
    {
      "inputs": [
        {
          "internalType": "address",
          "name": "from",
          "type": "address"
        },
        {
          "internalType": "address",
          "name": "to",
          "type": "address"
        },
        {
          "internalType": "uint256",
          "name": "tokenId",
          "type": "uint256"
        }
      ],
      "name": "safeTransferFrom",
      "outputs": [],
      "stateMutability": "nonpayable",
      "type": "function"
    },
    {
      "inputs": [
        {
          "internalType": "address",
          "name": "from",
          "type": "address"
        },
        {
          "internalType": "address",
          "name": "to",
          "type": "address"
        },
        {
          "internalType": "uint256",
          "name": "tokenId",
          "type": "uint256"
        },
        {
          "internalType": "bytes",
          "name": "data",
          "type": "bytes"
        }
      ],
      "name": "safeTransferFrom",
      "outputs": [],
      "stateMutability": "nonpayable",
      "type": "function"
    },
    {
      "inputs": [
        {
          "internalType": "address",
          "name": "operator",
          "type": "address"
        },
        {
          "internalType": "bool",
          "name": "approved",
          "type": "bool"
        }
      ],
      "name": "setApprovalForAll",
      "outputs": [],
      "stateMutability": "nonpayable",
      "type": "function"
    },
    {
      "inputs": [],
      "name": "symbol",
      "outputs": [
        {
          "internalType": "string",
          "name": "",
          "type": "string"
        }
      ],
      "stateMutability": "view",
      "type": "function"
    },
    {
      "inputs": [
        {
          "internalType": "uint256",
          "name": "index",
          "type": "uint256"
        }
      ],
      "name": "tokenByIndex",
      "outputs": [
        {
          "internalType": "uint256",
          "name": "",
          "type": "uint256"
        }
      ],
      "stateMutability": "view",
      "type": "function"
    },
    {
      "inputs": [
        {
          "internalType": "address",
          "name": "owner",
          "type": "address"
        },
        {
          "internalType": "uint256",
          "name": "index",
          "type": "uint256"
        }
      ],
      "name": "tokenOfOwnerByIndex",
      "outputs": [
        {
          "internalType": "uint256",
          "name": "",
          "type": "uint256"
        }
      ],
      "stateMutability": "view",
      "type": "function"
    },
    {
      "inputs": [],
      "name": "totalSupply",
      "outputs": [
        {
          "internalType": "uint256",
          "name": "",
          "type": "uint256"
        }
      ],
      "stateMutability": "view",
      "type": "function"
    },
    {
      "inputs": [
        {
          "internalType": "address",
          "name": "from",
          "type": "address"
        },
        {
          "internalType": "address",
          "name": "to",
          "type": "address"
        },
        {
          "internalType": "uint256",
          "name": "tokenId",
          "type": "uint256"
        }
      ],
      "name": "transferFrom",
      "outputs": [],
      "stateMutability": "nonpayable",
      "type": "function"
    },
    {
      "inputs": [
        {
          "internalType": "address",
          "name": "newOwner",
          "type": "address"
        }
      ],
      "name": "transferOwnership",
      "outputs": [],
      "stateMutability": "nonpayable",
      "type": "function"
    },
    {
      "inputs": [
        {
          "internalType": "address",
          "name": "to",
          "type": "address"
        }
      ],
      "name": "safeMint",
      "outputs": [],
      "stateMutability": "nonpayable",
      "type": "function"
    },
    {
      "inputs": [
        {
          "internalType": "bytes",
          "name": "",
          "type": "bytes"
        }
      ],
      "name": "checkUpkeep",
      "outputs": [
        {
          "internalType": "bool",
          "name": "upkeepNeeded",
          "type": "bool"
        },
        {
          "internalType": "bytes",
          "name": "",
          "type": "bytes"
        }
      ],
      "stateMutability": "view",
      "type": "function"
    },
    {
      "inputs": [
        {
          "internalType": "bytes",
          "name": "",
          "type": "bytes"
        }
      ],
      "name": "performUpkeep",
      "outputs": [],
      "stateMutability": "nonpayable",
      "type": "function"
    },
    {
      "inputs": [],
      "name": "getLatestPrice",
      "outputs": [
        {
          "internalType": "int256",
          "name": "",
          "type": "int256"
        }
      ],
      "stateMutability": "view",
      "type": "function"
    },
    {
      "inputs": [
        {
          "internalType": "uint256",
          "name": "newInterval",
          "type": "uint256"
        }
      ],
      "name": "setInterval",
      "outputs": [],
      "stateMutability": "nonpayable",
      "type": "function"
    },
    {
      "inputs": [
        {
          "internalType": "address",
          "name": "newFeed",
          "type": "address"
        }
      ],
      "name": "setPriceFeed",
      "outputs": [],
      "stateMutability": "nonpayable",
      "type": "function"
    },
    {
      "inputs": [
        {
          "internalType": "uint256",
          "name": "tokenId",
          "type": "uint256"
        }
      ],
      "name": "tokenURI",
      "outputs": [
        {
          "internalType": "string",
          "name": "",
          "type": "string"
        }
      ],
      "stateMutability": "view",
      "type": "function"
    },
    {
      "inputs": [
        {
          "internalType": "bytes4",
          "name": "interfaceId",
          "type": "bytes4"
        }
      ],
      "name": "supportsInterface",
      "outputs": [
        {
          "internalType": "bool",
          "name": "",
          "type": "bool"
        }
      ],
      "stateMutability": "view",
      "type": "function"
    }
  ],
  "bytecode": "0x60a06040526302faf080601160006101000a81548163ffffffff021916908363ffffffff1602179055506154e1601160046101000a81548167ffffffffffffffff021916908367ffffffffffffffff1602179055507fd89b2bf150e3b9e13446986e571fb9cab24b13cea0a43ea20a6049a85cc807cc60001b601255736168499c0cffcacd319c818142124b7a15e857ab601360006101000a81548173ffffffffffffffffffffffffffffffffffffffff021916908373ffffffffffffffffffffffffffffffffffffffff1602179055506000601760006101000a81548160ff02191690836001811115620000f957620000f86200065c565b5b021790555060405180606001604052806040518060800160405280605d8152602001620052ad605d913981526020016040518060800160405280605c81526020016200530a605c913981526020016040518060800160405280605c815260200162005420605c91398152506018906003620001769291906200056f565b5060405180606001604052806040518060800160405280605d815260200162005366605d913981526020016040518060800160405280605d8152602001620053c3605d913981526020016040518060800160405280605d81526020016200547c605d91398152506019906003620001ef9291906200056f565b50348015620001fd57600080fd5b50604051620054d9380380620054d9833981810160405281019062000223919062000730565b601360009054906101000a900473ffffffffffffffffffffffffffffffffffffffff166040518060400160405280600881526020017f42756c6c426561720000000000000000000000000000000000000000000000008152506040518060400160405280600281526020017f42420000000000000000000000000000000000000000000000000000000000008152508160009081620002c39190620009e7565b508060019081620002d59190620009e7565b505050620002f8620002ec620003fd60201b60201c565b6200040560201b60201c565b8073ffffffffffffffffffffffffffffffffffffffff1660808173ffffffffffffffffffffffffffffffffffffffff168152505050816014819055504260158190555080600d60006101000a81548173ffffffffffffffffffffffffffffffffffffffff021916908373ffffffffffffffffffffffffffffffffffffffff1602179055506200038c620004cb60201b60201c565b601681905550601360009054906101000a900473ffffffffffffffffffffffffffffffffffffffff16600e60006101000a81548173ffffffffffffffffffffffffffffffffffffffff021916908373ffffffffffffffffffffffffffffffffffffffff160217905550505062000bd8565b600033905090565b6000600b60009054906101000a900473ffffffffffffffffffffffffffffffffffffffff16905081600b60006101000a81548173ffffffffffffffffffffffffffffffffffffffff021916908373ffffffffffffffffffffffffffffffffffffffff1602179055508173ffffffffffffffffffffffffffffffffffffffff168173ffffffffffffffffffffffffffffffffffffffff167f8be0079c531659141344cd1fd0a4f28419497f9722a3daafe3b4186f6b6457e060405160405180910390a35050565b600080600d60009054906101000a900473ffffffffffffffffffffffffffffffffffffffff1673ffffffffffffffffffffffffffffffffffffffff1663feaf968c6040518163ffffffff1660e01b815260040160a060405180830381865afa1580156200053c573d6000803e3d6000fd5b505050506040513d601f19601f8201168201806040525081019062000562919062000b50565b5050509150508091505090565b828054828255906000526020600020908101928215620005bc579160200282015b82811115620005bb578251829081620005aa9190620009e7565b509160200191906001019062000590565b5b509050620005cb9190620005cf565b5090565b5b80821115620005f35760008181620005e99190620005f7565b50600101620005d0565b5090565b5080546200060590620007e0565b6000825580601f106200061957506200063a565b601f0160209004906000526020600020908101906200063991906200063d565b5b50565b5b80821115620006585760008160009055506001016200063e565b5090565b7f4e487b7100000000000000000000000000000000000000000000000000000000600052602160045260246000fd5b600080fd5b6000819050919050565b620006a58162000690565b8114620006b157600080fd5b50565b600081519050620006c5816200069a565b92915050565b600073ffffffffffffffffffffffffffffffffffffffff82169050919050565b6000620006f882620006cb565b9050919050565b6200070a81620006eb565b81146200071657600080fd5b50565b6000815190506200072a81620006ff565b92915050565b600080604083850312156200074a57620007496200068b565b5b60006200075a85828601620006b4565b92505060206200076d8582860162000719565b9150509250929050565b600081519050919050565b7f4e487b7100000000000000000000000000000000000000000000000000000000600052604160045260246000fd5b7f4e487b7100000000000000000000000000000000000000000000000000000000600052602260045260246000fd5b60006002820490506001821680620007f957607f821691505b6020821081036200080f576200080e620007b1565b5b50919050565b60008190508160005260206000209050919050565b60006020601f8301049050919050565b600082821b905092915050565b600060088302620008797fffffffffffffffffffffffffffffffffffffffffffffffffffffffffffffffff826200083a565b6200088586836200083a565b95508019841693508086168417925050509392505050565b6000819050919050565b6000620008c8620008c2620008bc8462000690565b6200089d565b62000690565b9050919050565b6000819050919050565b620008e483620008a7565b620008fc620008f382620008cf565b84845462000847565b825550505050565b600090565b6200091362000904565b62000920818484620008d9565b505050565b5b8181101562000948576200093c60008262000909565b60018101905062000926565b5050565b601f8211156200099757620009618162000815565b6200096c846200082a565b810160208510156200097c578190505b620009946200098b856200082a565b83018262000925565b50505b505050565b600082821c905092915050565b6000620009bc600019846008026200099c565b1980831691505092915050565b6000620009d78383620009a9565b9150826002028217905092915050565b620009f28262000777565b67ffffffffffffffff81111562000a0e5762000a0d62000782565b5b62000a1a8254620007e0565b62000a278282856200094c565b600060209050601f83116001811462000a5f576000841562000a4a578287015190505b62000a568582620009c9565b86555062000ac6565b601f19841662000a6f8662000815565b60005b8281101562000a995784890151825560018201915060208501945060208101905062000a72565b8683101562000ab9578489015162000ab5601f891682620009a9565b8355505b6001600288020188555050505b505050505050565b600069ffffffffffffffffffff82169050919050565b62000aef8162000ace565b811462000afb57600080fd5b50565b60008151905062000b0f8162000ae4565b92915050565b6000819050919050565b62000b2a8162000b15565b811462000b3657600080fd5b50565b60008151905062000b4a8162000b1f565b92915050565b600080600080600060a0868803121562000b6f5762000b6e6200068b565b5b600062000b7f8882890162000afe565b955050602062000b928882890162000b39565b945050604062000ba588828901620006b4565b935050606062000bb888828901620006b4565b925050608062000bcb8882890162000afe565b9150509295509295909350565b6080516146b262000bfb600039600081816108f4015261094801526146b26000f3fe608060405234801561001057600080fd5b506004361061021c5760003560e01c806370a08231116101255780639d1b464a116100ad578063e89e106a1161007c578063e89e106a1461062c578063e985e9c51461064a578063f0e8b3ae1461067a578063f2fde38b14610698578063f6eaffc8146106b45761021c565b80639d1b464a146105a6578063a22cb465146105c4578063b88d4fde146105e0578063c87b56dd146105fc5761021c565b80638ac00021116100f45780638ac00021146105105780638da5cb5b1461052e5780638e15f4731461054c578063947a36fb1461056a57806395d89b41146105885761021c565b806370a082311461049c578063715018a6146104cc578063724e78da146104d6578063741bef1a146104f25761021c565b80632f745c59116101a857806342842e0e1161017757806342842e0e146103d35780634585e33b146103ef5780634f6ccce71461040b5780636352211e1461043b5780636e04ff0d1461046b5761021c565b80632f745c591461034b5780633b2bcbf11461037b5780633f3b3b271461039957806340d097c3146103b75761021c565b806318160ddd116101ef57806318160ddd146102bb5780631fe543e3146102d957806322a90082146102f557806323b872dd1461031157806324f746971461032d5761021c565b806301ffc9a71461022157806306fdde0314610251578063081812fc1461026f578063095ea7b31461029f575b600080fd5b61023b60048036038101906102369190612c47565b6106e4565b6040516102489190612c8f565b60405180910390f35b6102596106f6565b6040516102669190612d3a565b60405180910390f35b61028960048036038101906102849190612d92565b610788565b6040516102969190612e00565b60405180910390f35b6102b960048036038101906102b49190612e47565b6107ce565b005b6102c36108e5565b6040516102d09190612e96565b60405180910390f35b6102f360048036038101906102ee9190612ff9565b6108f2565b005b61030f600480360381019061030a9190612d92565b6109b2565b005b61032b60048036038101906103269190613055565b6109c4565b005b610335610a24565b60405161034291906130c7565b60405180910390f35b61036560048036038101906103609190612e47565b610a3a565b6040516103729190612e96565b60405180910390f35b610383610adf565b6040516103909190613141565b60405180910390f35b6103a1610b05565b6040516103ae9190612e96565b60405180910390f35b6103d160048036038101906103cc919061315c565b610b0b565b005b6103ed60048036038101906103e89190613055565b610bf0565b005b610409600480360381019061040491906131e4565b610c10565b005b61042560048036038101906104209190612d92565b610ccb565b6040516104329190612e96565b60405180910390f35b61045560048036038101906104509190612d92565b610d3c565b6040516104629190612e00565b60405180910390f35b610485600480360381019061048091906131e4565b610ded565b604051610493929190613286565b60405180910390f35b6104b660048036038101906104b1919061315c565b610e0c565b6040516104c39190612e96565b60405180910390f35b6104d4610ec3565b005b6104f060048036038101906104eb919061315c565b610ed7565b005b6104fa610f23565b60405161050791906132d7565b60405180910390f35b610518610f49565b6040516105259190613315565b60405180910390f35b610536610f63565b6040516105439190612e00565b60405180910390f35b610554610f8d565b6040516105619190613349565b60405180910390f35b61057261102e565b60405161057f9190612e96565b60405180910390f35b610590611034565b60405161059d9190612d3a565b60405180910390f35b6105ae6110c6565b6040516105bb9190613349565b60405180910390f35b6105de60048036038101906105d99190613390565b6110cc565b005b6105fa60048036038101906105f59190613485565b6110e2565b005b61061660048036038101906106119190612d92565b611144565b6040516106239190612d3a565b60405180910390f35b610634611156565b6040516106419190612e96565b60405180910390f35b610664600480360381019061065f9190613508565b61115c565b6040516106719190612c8f565b60405180910390f35b6106826111f0565b60405161068f91906135bf565b60405180910390f35b6106b260048036038101906106ad919061315c565b611203565b005b6106ce60048036038101906106c99190612d92565b611286565b6040516106db9190612e96565b60405180910390f35b60006106ef826112aa565b9050919050565b60606000805461070590613609565b80601f016020809104026020016040519081016040528092919081815260200182805461073190613609565b801561077e5780601f106107535761010080835404028352916020019161077e565b820191906000526020600020905b81548152906001019060200180831161076157829003601f168201915b5050505050905090565b600061079382611324565b6004600083815260200190815260200160002060009054906101000a900473ffffffffffffffffffffffffffffffffffffffff169050919050565b60006107d982610d3c565b90508073ffffffffffffffffffffffffffffffffffffffff168373ffffffffffffffffffffffffffffffffffffffff1603610849576040517f08c379a0000000000000000000000000000000000000000000000000000000008152600401610840906136ac565b60405180910390fd5b8073ffffffffffffffffffffffffffffffffffffffff1661086861136f565b73ffffffffffffffffffffffffffffffffffffffff16148061089757506108968161089161136f565b61115c565b5b6108d6576040517f08c379a00000000000000000000000000000000000000000000000000000000081526004016108cd9061373e565b60405180910390fd5b6108e08383611377565b505050565b6000600880549050905090565b7f000000000000000000000000000000000000000000000000000000000000000073ffffffffffffffffffffffffffffffffffffffff163373ffffffffffffffffffffffffffffffffffffffff16146109a457337f00000000000000000000000000000000000000000000000000000000000000006040517f1cf993f400000000000000000000000000000000000000000000000000000000815260040161099b92919061375e565b60405180910390fd5b6109ae8282611430565b5050565b6109ba6116c5565b8060148190555050565b6109d56109cf61136f565b82611743565b610a14576040517f08c379a0000000000000000000000000000000000000000000000000000000008152600401610a0b906137f9565b60405180910390fd5b610a1f8383836117d8565b505050565b601160009054906101000a900463ffffffff1681565b6000610a4583610e0c565b8210610a86576040517f08c379a0000000000000000000000000000000000000000000000000000000008152600401610a7d9061388b565b60405180910390fd5b600660008473ffffffffffffffffffffffffffffffffffffffff1673ffffffffffffffffffffffffffffffffffffffff168152602001908152602001600020600083815260200190815260200160002054905092915050565b600e60009054906101000a900473ffffffffffffffffffffffffffffffffffffffff1681565b60155481565b610b136116c5565b6000610b1f600c611a3e565b9050610b2b600c611a4c565b610b358282611a62565b60006018600081548110610b4c57610b4b6138ab565b5b906000526020600020018054610b6190613609565b80601f0160208091040260200160405190810160405280929190818152602001828054610b8d90613609565b8015610bda5780601f10610baf57610100808354040283529160200191610bda565b820191906000526020600020905b815481529060010190602001808311610bbd57829003601f168201915b50505050509050610beb8282611a80565b505050565b610c0b838383604051806020016040528060008152506110e2565b505050565b60145460155442610c219190613909565b1115610cc657426015819055506000610c38610f8d565b90506016548103610c495750610cc7565b601654811215610c7f576001601760006101000a81548160ff02191690836001811115610c7957610c78613548565b5b02179055505b601654811315610cb5576000601760006101000a81548160ff02191690836001811115610caf57610cae613548565b5b02179055505b610cbd611aed565b80601681905550505b5b5050565b6000610cd56108e5565b8210610d16576040517f08c379a0000000000000000000000000000000000000000000000000000000008152600401610d0d906139af565b60405180910390fd5b60088281548110610d2a57610d296138ab565b5b90600052602060002001549050919050565b6000806002600084815260200190815260200160002060009054906101000a900473ffffffffffffffffffffffffffffffffffffffff169050600073ffffffffffffffffffffffffffffffffffffffff168173ffffffffffffffffffffffffffffffffffffffff1603610de4576040517f08c379a0000000000000000000000000000000000000000000000000000000008152600401610ddb90613a1b565b60405180910390fd5b80915050919050565b6000606060145460155442610e029190613909565b1191509250929050565b60008073ffffffffffffffffffffffffffffffffffffffff168273ffffffffffffffffffffffffffffffffffffffff1603610e7c576040517f08c379a0000000000000000000000000000000000000000000000000000000008152600401610e7390613aad565b60405180910390fd5b600360008373ffffffffffffffffffffffffffffffffffffffff1673ffffffffffffffffffffffffffffffffffffffff168152602001908152602001600020549050919050565b610ecb6116c5565b610ed56000611c2a565b565b610edf6116c5565b80600d60006101000a81548173ffffffffffffffffffffffffffffffffffffffff021916908373ffffffffffffffffffffffffffffffffffffffff16021790555050565b600d60009054906101000a900473ffffffffffffffffffffffffffffffffffffffff1681565b601160049054906101000a900467ffffffffffffffff1681565b6000600b60009054906101000a900473ffffffffffffffffffffffffffffffffffffffff16905090565b600080600d60009054906101000a900473ffffffffffffffffffffffffffffffffffffffff1673ffffffffffffffffffffffffffffffffffffffff1663feaf968c6040518163ffffffff1660e01b815260040160a060405180830381865afa158015610ffd573d6000803e3d6000fd5b505050506040513d601f19601f820116820180604052508101906110219190613b50565b5050509150508091505090565b60145481565b60606001805461104390613609565b80601f016020809104026020016040519081016040528092919081815260200182805461106f90613609565b80156110bc5780601f10611091576101008083540402835291602001916110bc565b820191906000526020600020905b81548152906001019060200180831161109f57829003601f168201915b5050505050905090565b60165481565b6110de6110d761136f565b8383611cf0565b5050565b6110f36110ed61136f565b83611743565b611132576040517f08c379a0000000000000000000000000000000000000000000000000000000008152600401611129906137f9565b60405180910390fd5b61113e84848484611e5c565b50505050565b606061114f82611eb8565b9050919050565b60105481565b6000600560008473ffffffffffffffffffffffffffffffffffffffff1673ffffffffffffffffffffffffffffffffffffffff16815260200190815260200160002060008373ffffffffffffffffffffffffffffffffffffffff1673ffffffffffffffffffffffffffffffffffffffff16815260200190815260200160002060009054906101000a900460ff16905092915050565b601760009054906101000a900460ff1681565b61120b6116c5565b600073ffffffffffffffffffffffffffffffffffffffff168173ffffffffffffffffffffffffffffffffffffffff160361127a576040517f08c379a000000000000000000000000000000000000000000000000000000000815260040161127190613c3d565b60405180910390fd5b61128381611c2a565b50565b600f818154811061129657600080fd5b906000526020600020016000915090505481565b60007f780e9d63000000000000000000000000000000000000000000000000000000007bffffffffffffffffffffffffffffffffffffffffffffffffffffffff1916827bffffffffffffffffffffffffffffffffffffffffffffffffffffffff1916148061131d575061131c82611fca565b5b9050919050565b61132d816120ac565b61136c576040517f08c379a000000000000000000000000000000000000000000000000000000000815260040161136390613a1b565b60405180910390fd5b50565b600033905090565b816004600083815260200190815260200160002060006101000a81548173ffffffffffffffffffffffffffffffffffffffff021916908373ffffffffffffffffffffffffffffffffffffffff160217905550808273ffffffffffffffffffffffffffffffffffffffff166113ea83610d3c565b73ffffffffffffffffffffffffffffffffffffffff167f8c5be1e5ebec7d5bd14f71427d1e84f3dd0314c0f7b2291e5b200ac8c7c3b92560405160405180910390a45050565b80600f9080519060200190611446929190612b71565b50600080600181111561145c5761145b613548565b5b601760009054906101000a900460ff16600181111561147e5761147d613548565b5b1461148a57601961148d565b60185b805480602002602001604051908101604052809291908181526020016000905b828210156115595783829060005260206000200180546114cc90613609565b80601f01602080910402602001604051908101604052809291908181526020018280546114f890613609565b80156115455780601f1061151a57610100808354040283529160200191611545565b820191906000526020600020905b81548152906001019060200180831161152857829003601f168201915b5050505050815260200190600101906114ad565b5050505090506000815183600081518110611577576115766138ab565b5b60200260200101516115899190613c8c565b905060005b611598600c611a3e565b8110156115d6576115c3818484815181106115b6576115b56138ab565b5b6020026020010151611a80565b80806115ce90613cbd565b91505061158e565b5060008060018111156115ec576115eb613548565b5b601760009054906101000a900460ff16600181111561160e5761160d613548565b5b1461164e576040518060400160405280600781526020017f6265617269736800000000000000000000000000000000000000000000000000815250611685565b6040518060400160405280600781526020017f62756c6c697368000000000000000000000000000000000000000000000000008152505b90507f1cd67277dcd039d660f99499bdb46e90175d6160e3f9ab788a032b7a1ad2356a816040516116b69190612d3a565b60405180910390a15050505050565b6116cd61136f565b73ffffffffffffffffffffffffffffffffffffffff166116eb610f63565b73ffffffffffffffffffffffffffffffffffffffff1614611741576040517f08c379a000000000000000000000000000000000000000000000000000000000815260040161173890613d51565b60405180910390fd5b565b60008061174f83610d3c565b90508073ffffffffffffffffffffffffffffffffffffffff168473ffffffffffffffffffffffffffffffffffffffff1614806117915750611790818561115c565b5b806117cf57508373ffffffffffffffffffffffffffffffffffffffff166117b784610788565b73ffffffffffffffffffffffffffffffffffffffff16145b91505092915050565b8273ffffffffffffffffffffffffffffffffffffffff166117f882610d3c565b73ffffffffffffffffffffffffffffffffffffffff161461184e576040517f08c379a000000000000000000000000000000000000000000000000000000000815260040161184590613de3565b60405180910390fd5b600073ffffffffffffffffffffffffffffffffffffffff168273ffffffffffffffffffffffffffffffffffffffff16036118bd576040517f08c379a00000000000000000000000000000000000000000000000000000000081526004016118b490613e75565b60405180910390fd5b6118c8838383612118565b6118d3600082611377565b6001600360008573ffffffffffffffffffffffffffffffffffffffff1673ffffffffffffffffffffffffffffffffffffffff16815260200190815260200160002060008282546119239190613909565b925050819055506001600360008473ffffffffffffffffffffffffffffffffffffffff1673ffffffffffffffffffffffffffffffffffffffff168152602001908152602001600020600082825461197a9190613e95565b92505081905550816002600083815260200190815260200160002060006101000a81548173ffffffffffffffffffffffffffffffffffffffff021916908373ffffffffffffffffffffffffffffffffffffffff160217905550808273ffffffffffffffffffffffffffffffffffffffff168473ffffffffffffffffffffffffffffffffffffffff167fddf252ad1be2c89b69c2b068fc378daa952ba7f163c4a11628f55a4df523b3ef60405160405180910390a4611a39838383612128565b505050565b600081600001549050919050565b6001816000016000828254019250508190555050565b611a7c82826040518060200160405280600081525061212d565b5050565b611a89826120ac565b611ac8576040517f08c379a0000000000000000000000000000000000000000000000000000000008152600401611abf90613f3b565b60405180910390fd5b80600a60008481526020019081526020016000209081611ae891906140fd565b505050565b6000601160049054906101000a900467ffffffffffffffff1667ffffffffffffffff1603611b50576040517f08c379a0000000000000000000000000000000000000000000000000000000008152600401611b479061421b565b60405180910390fd5b600e60009054906101000a900473ffffffffffffffffffffffffffffffffffffffff1673ffffffffffffffffffffffffffffffffffffffff16635d3b1d30601254601160049054906101000a900467ffffffffffffffff166003601160009054906101000a900463ffffffff1660016040518663ffffffff1660e01b8152600401611bdf9594939291906142d8565b6020604051808303816000875af1158015611bfe573d6000803e3d6000fd5b505050506040513d601f19601f82011682018060405250810190611c22919061432b565b601081905550565b6000600b60009054906101000a900473ffffffffffffffffffffffffffffffffffffffff16905081600b60006101000a81548173ffffffffffffffffffffffffffffffffffffffff021916908373ffffffffffffffffffffffffffffffffffffffff1602179055508173ffffffffffffffffffffffffffffffffffffffff168173ffffffffffffffffffffffffffffffffffffffff167f8be0079c531659141344cd1fd0a4f28419497f9722a3daafe3b4186f6b6457e060405160405180910390a35050565b8173ffffffffffffffffffffffffffffffffffffffff168373ffffffffffffffffffffffffffffffffffffffff1603611d5e576040517f08c379a0000000000000000000000000000000000000000000000000000000008152600401611d55906143a4565b60405180910390fd5b80600560008573ffffffffffffffffffffffffffffffffffffffff1673ffffffffffffffffffffffffffffffffffffffff16815260200190815260200160002060008473ffffffffffffffffffffffffffffffffffffffff1673ffffffffffffffffffffffffffffffffffffffff16815260200190815260200160002060006101000a81548160ff0219169083151502179055508173ffffffffffffffffffffffffffffffffffffffff168373ffffffffffffffffffffffffffffffffffffffff167f17307eab39ab6107e8899845ad3d59bd9653f200f220920489ca2b5937696c3183604051611e4f9190612c8f565b60405180910390a3505050565b611e678484846117d8565b611e7384848484612188565b611eb2576040517f08c379a0000000000000000000000000000000000000000000000000000000008152600401611ea990614436565b60405180910390fd5b50505050565b6060611ec382611324565b6000600a60008481526020019081526020016000208054611ee390613609565b80601f0160208091040260200160405190810160405280929190818152602001828054611f0f90613609565b8015611f5c5780601f10611f3157610100808354040283529160200191611f5c565b820191906000526020600020905b815481529060010190602001808311611f3f57829003601f168201915b505050505090506000611f6d61230f565b90506000815103611f82578192505050611fc5565b600082511115611fb7578082604051602001611f9f929190614492565b60405160208183030381529060405292505050611fc5565b611fc084612326565b925050505b919050565b60007f80ac58cd000000000000000000000000000000000000000000000000000000007bffffffffffffffffffffffffffffffffffffffffffffffffffffffff1916827bffffffffffffffffffffffffffffffffffffffffffffffffffffffff1916148061209557507f5b5e139f000000000000000000000000000000000000000000000000000000007bffffffffffffffffffffffffffffffffffffffffffffffffffffffff1916827bffffffffffffffffffffffffffffffffffffffffffffffffffffffff1916145b806120a557506120a48261238e565b5b9050919050565b60008073ffffffffffffffffffffffffffffffffffffffff166002600084815260200190815260200160002060009054906101000a900473ffffffffffffffffffffffffffffffffffffffff1673ffffffffffffffffffffffffffffffffffffffff1614159050919050565b6121238383836123f8565b505050565b505050565b612137838361250a565b6121446000848484612188565b612183576040517f08c379a000000000000000000000000000000000000000000000000000000000815260040161217a90614436565b60405180910390fd5b505050565b60006121a98473ffffffffffffffffffffffffffffffffffffffff166126e3565b15612302578373ffffffffffffffffffffffffffffffffffffffff1663150b7a026121d261136f565b8786866040518563ffffffff1660e01b81526004016121f494939291906144b6565b6020604051808303816000875af192505050801561223057506040513d601f19601f8201168201806040525081019061222d9190614517565b60015b6122b2573d8060008114612260576040519150601f19603f3d011682016040523d82523d6000602084013e612265565b606091505b5060008151036122aa576040517f08c379a00000000000000000000000000000000000000000000000000000000081526004016122a190614436565b60405180910390fd5b805181602001fd5b63150b7a0260e01b7bffffffffffffffffffffffffffffffffffffffffffffffffffffffff1916817bffffffffffffffffffffffffffffffffffffffffffffffffffffffff191614915050612307565b600190505b949350505050565b606060405180602001604052806000815250905090565b606061233182611324565b600061233b61230f565b9050600081511161235b5760405180602001604052806000815250612386565b8061236584612706565b604051602001612376929190614492565b6040516020818303038152906040525b915050919050565b60007f01ffc9a7000000000000000000000000000000000000000000000000000000007bffffffffffffffffffffffffffffffffffffffffffffffffffffffff1916827bffffffffffffffffffffffffffffffffffffffffffffffffffffffff1916149050919050565b612403838383612866565b600073ffffffffffffffffffffffffffffffffffffffff168373ffffffffffffffffffffffffffffffffffffffff1603612445576124408161286b565b612484565b8173ffffffffffffffffffffffffffffffffffffffff168373ffffffffffffffffffffffffffffffffffffffff16146124835761248283826128b4565b5b5b600073ffffffffffffffffffffffffffffffffffffffff168273ffffffffffffffffffffffffffffffffffffffff16036124c6576124c181612a21565b612505565b8273ffffffffffffffffffffffffffffffffffffffff168273ffffffffffffffffffffffffffffffffffffffff1614612504576125038282612af2565b5b5b505050565b600073ffffffffffffffffffffffffffffffffffffffff168273ffffffffffffffffffffffffffffffffffffffff1603612579576040517f08c379a000000000000000000000000000000000000000000000000000000000815260040161257090614590565b60405180910390fd5b612582816120ac565b156125c2576040517f08c379a00000000000000000000000000000000000000000000000000000000081526004016125b9906145fc565b60405180910390fd5b6125ce60008383612118565b6001600360008473ffffffffffffffffffffffffffffffffffffffff1673ffffffffffffffffffffffffffffffffffffffff168152602001908152602001600020600082825461261e9190613e95565b92505081905550816002600083815260200190815260200160002060006101000a81548173ffffffffffffffffffffffffffffffffffffffff021916908373ffffffffffffffffffffffffffffffffffffffff160217905550808273ffffffffffffffffffffffffffffffffffffffff16600073ffffffffffffffffffffffffffffffffffffffff167fddf252ad1be2c89b69c2b068fc378daa952ba7f163c4a11628f55a4df523b3ef60405160405180910390a46126df60008383612128565b5050565b6000808273ffffffffffffffffffffffffffffffffffffffff163b119050919050565b60606000820361274d576040518060400160405280600181526020017f30000000000000000000000000000000000000000000000000000000000000008152509050612861565b600082905060005b6000821461277f57808061276890613cbd565b915050600a82612778919061461c565b9150612755565b60008167ffffffffffffffff81111561279b5761279a612eb6565b5b6040519080825280601f01601f1916602001820160405280156127cd5781602001600182028036833780820191505090505b5090505b6000851461285a576001826127e69190613909565b9150600a856127f59190613c8c565b60306128019190613e95565b60f81b818381518110612817576128166138ab565b5b60200101907effffffffffffffffffffffffffffffffffffffffffffffffffffffffffffff1916908160001a905350600a85612853919061461c565b94506127d1565b8093505050505b919050565b505050565b6008805490506009600083815260200190815260200160002081905550600881908060018154018082558091505060019003906000526020600020016000909190919091505550565b600060016128c184610e0c565b6128cb9190613909565b90506000600760008481526020019081526020016000205490508181146129b0576000600660008673ffffffffffffffffffffffffffffffffffffffff1673ffffffffffffffffffffffffffffffffffffffff168152602001908152602001600020600084815260200190815260200160002054905080600660008773ffffffffffffffffffffffffffffffffffffffff1673ffffffffffffffffffffffffffffffffffffffff168152602001908152602001600020600084815260200190815260200160002081905550816007600083815260200190815260200160002081905550505b6007600084815260200190815260200160002060009055600660008573ffffffffffffffffffffffffffffffffffffffff1673ffffffffffffffffffffffffffffffffffffffff16815260200190815260200160002060008381526020019081526020016000206000905550505050565b60006001600880549050612a359190613909565b9050600060096000848152602001908152602001600020549050600060088381548110612a6557612a646138ab565b5b906000526020600020015490508060088381548110612a8757612a866138ab565b5b906000526020600020018190555081600960008381526020019081526020016000208190555060096000858152602001908152602001600020600090556008805480612ad657612ad561464d565b5b6001900381819060005260206000200160009055905550505050565b6000612afd83610e0c565b905081600660008573ffffffffffffffffffffffffffffffffffffffff1673ffffffffffffffffffffffffffffffffffffffff168152602001908152602001600020600083815260200190815260200160002081905550806007600084815260200190815260200160002081905550505050565b828054828255906000526020600020908101928215612bad579160200282015b82811115612bac578251825591602001919060010190612b91565b5b509050612bba9190612bbe565b5090565b5b80821115612bd7576000816000905550600101612bbf565b5090565b6000604051905090565b600080fd5b600080fd5b60007fffffffff0000000000000000000000000000000000000000000000000000000082169050919050565b612c2481612bef565b8114612c2f57600080fd5b50565b600081359050612c4181612c1b565b92915050565b600060208284031215612c5d57612c5c612be5565b5b6000612c6b84828501612c32565b91505092915050565b60008115159050919050565b612c8981612c74565b82525050565b6000602082019050612ca46000830184612c80565b92915050565b600081519050919050565b600082825260208201905092915050565b60005b83811015612ce4578082015181840152602081019050612cc9565b60008484015250505050565b6000601f19601f8301169050919050565b6000612d0c82612caa565b612d168185612cb5565b9350612d26818560208601612cc6565b612d2f81612cf0565b840191505092915050565b60006020820190508181036000830152612d548184612d01565b905092915050565b6000819050919050565b612d6f81612d5c565b8114612d7a57600080fd5b50565b600081359050612d8c81612d66565b92915050565b600060208284031215612da857612da7612be5565b5b6000612db684828501612d7d565b91505092915050565b600073ffffffffffffffffffffffffffffffffffffffff82169050919050565b6000612dea82612dbf565b9050919050565b612dfa81612ddf565b82525050565b6000602082019050612e156000830184612df1565b92915050565b612e2481612ddf565b8114612e2f57600080fd5b50565b600081359050612e4181612e1b565b92915050565b60008060408385031215612e5e57612e5d612be5565b5b6000612e6c85828601612e32565b9250506020612e7d85828601612d7d565b9150509250929050565b612e9081612d5c565b82525050565b6000602082019050612eab6000830184612e87565b92915050565b600080fd5b7f4e487b7100000000000000000000000000000000000000000000000000000000600052604160045260246000fd5b612eee82612cf0565b810181811067ffffffffffffffff82111715612f0d57612f0c612eb6565b5b80604052505050565b6000612f20612bdb565b9050612f2c8282612ee5565b919050565b600067ffffffffffffffff821115612f4c57612f4b612eb6565b5b602082029050602081019050919050565b600080fd5b6000612f75612f7084612f31565b612f16565b90508083825260208201905060208402830185811115612f9857612f97612f5d565b5b835b81811015612fc15780612fad8882612d7d565b845260208401935050602081019050612f9a565b5050509392505050565b600082601f830112612fe057612fdf612eb1565b5b8135612ff0848260208601612f62565b91505092915050565b600080604083850312156130105761300f612be5565b5b600061301e85828601612d7d565b925050602083013567ffffffffffffffff81111561303f5761303e612bea565b5b61304b85828601612fcb565b9150509250929050565b60008060006060848603121561306e5761306d612be5565b5b600061307c86828701612e32565b935050602061308d86828701612e32565b925050604061309e86828701612d7d565b9150509250925092565b600063ffffffff82169050919050565b6130c1816130a8565b82525050565b60006020820190506130dc60008301846130b8565b92915050565b6000819050919050565b60006131076131026130fd84612dbf565b6130e2565b612dbf565b9050919050565b6000613119826130ec565b9050919050565b600061312b8261310e565b9050919050565b61313b81613120565b82525050565b60006020820190506131566000830184613132565b92915050565b60006020828403121561317257613171612be5565b5b600061318084828501612e32565b91505092915050565b600080fd5b60008083601f8401126131a4576131a3612eb1565b5b8235905067ffffffffffffffff8111156131c1576131c0613189565b5b6020830191508360018202830111156131dd576131dc612f5d565b5b9250929050565b600080602083850312156131fb576131fa612be5565b5b600083013567ffffffffffffffff81111561321957613218612bea565b5b6132258582860161318e565b92509250509250929050565b600081519050919050565b600082825260208201905092915050565b600061325882613231565b613262818561323c565b9350613272818560208601612cc6565b61327b81612cf0565b840191505092915050565b600060408201905061329b6000830185612c80565b81810360208301526132ad818461324d565b90509392505050565b60006132c18261310e565b9050919050565b6132d1816132b6565b82525050565b60006020820190506132ec60008301846132c8565b92915050565b600067ffffffffffffffff82169050919050565b61330f816132f2565b82525050565b600060208201905061332a6000830184613306565b92915050565b6000819050919050565b61334381613330565b82525050565b600060208201905061335e600083018461333a565b92915050565b61336d81612c74565b811461337857600080fd5b50565b60008135905061338a81613364565b92915050565b600080604083850312156133a7576133a6612be5565b5b60006133b585828601612e32565b92505060206133c68582860161337b565b9150509250929050565b600080fd5b600067ffffffffffffffff8211156133f0576133ef612eb6565b5b6133f982612cf0565b9050602081019050919050565b82818337600083830152505050565b6000613428613423846133d5565b612f16565b905082815260208101848484011115613444576134436133d0565b5b61344f848285613406565b509392505050565b600082601f83011261346c5761346b612eb1565b5b813561347c848260208601613415565b91505092915050565b6000806000806080858703121561349f5761349e612be5565b5b60006134ad87828801612e32565b94505060206134be87828801612e32565b93505060406134cf87828801612d7d565b925050606085013567ffffffffffffffff8111156134f0576134ef612bea565b5b6134fc87828801613457565b91505092959194509250565b6000806040838503121561351f5761351e612be5565b5b600061352d85828601612e32565b925050602061353e85828601612e32565b9150509250929050565b7f4e487b7100000000000000000000000000000000000000000000000000000000600052602160045260246000fd5b6002811061358857613587613548565b5b50565b600081905061359982613577565b919050565b60006135a98261358b565b9050919050565b6135b98161359e565b82525050565b60006020820190506135d460008301846135b0565b92915050565b7f4e487b7100000000000000000000000000000000000000000000000000000000600052602260045260246000fd5b6000600282049050600182168061362157607f821691505b602082108103613634576136336135da565b5b50919050565b7f4552433732313a20617070726f76616c20746f2063757272656e74206f776e6560008201527f7200000000000000000000000000000000000000000000000000000000000000602082015250565b6000613696602183612cb5565b91506136a18261363a565b604082019050919050565b600060208201905081810360008301526136c581613689565b9050919050565b7f4552433732313a20617070726f76652063616c6c6572206973206e6f7420746f60008201527f6b656e206f776e6572206e6f7220617070726f76656420666f7220616c6c0000602082015250565b6000613728603e83612cb5565b9150613733826136cc565b604082019050919050565b600060208201905081810360008301526137578161371b565b9050919050565b60006040820190506137736000830185612df1565b6137806020830184612df1565b9392505050565b7f4552433732313a2063616c6c6572206973206e6f7420746f6b656e206f776e6560008201527f72206e6f7220617070726f766564000000000000000000000000000000000000602082015250565b60006137e3602e83612cb5565b91506137ee82613787565b604082019050919050565b60006020820190508181036000830152613812816137d6565b9050919050565b7f455243373231456e756d657261626c653a206f776e657220696e646578206f7560008201527f74206f6620626f756e6473000000000000000000000000000000000000000000602082015250565b6000613875602b83612cb5565b915061388082613819565b604082019050919050565b600060208201905081810360008301526138a481613868565b9050919050565b7f4e487b7100000000000000000000000000000000000000000000000000000000600052603260045260246000fd5b7f4e487b7100000000000000000000000000000000000000000000000000000000600052601160045260246000fd5b600061391482612d5c565b915061391f83612d5c565b9250828203905081811115613937576139366138da565b5b92915050565b7f455243373231456e756d657261626c653a20676c6f62616c20696e646578206f60008201527f7574206f6620626f756e64730000000000000000000000000000000000000000602082015250565b6000613999602c83612cb5565b91506139a48261393d565b604082019050919050565b600060208201905081810360008301526139c88161398c565b9050919050565b7f4552433732313a20696e76616c696420746f6b656e2049440000000000000000600082015250565b6000613a05601883612cb5565b9150613a10826139cf565b602082019050919050565b60006020820190508181036000830152613a34816139f8565b9050919050565b7f4552433732313a2061646472657373207a65726f206973206e6f74206120766160008201527f6c6964206f776e65720000000000000000000000000000000000000000000000602082015250565b6000613a97602983612cb5565b9150613aa282613a3b565b604082019050919050565b60006020820190508181036000830152613ac681613a8a565b9050919050565b600069ffffffffffffffffffff82169050919050565b613aec81613acd565b8114613af757600080fd5b50565b600081519050613b0981613ae3565b92915050565b613b1881613330565b8114613b2357600080fd5b50565b600081519050613b3581613b0f565b92915050565b600081519050613b4a81612d66565b92915050565b600080600080600060a08688031215613b6c57613b6b612be5565b5b6000613b7a88828901613afa565b9550506020613b8b88828901613b26565b9450506040613b9c88828901613b3b565b9350506060613bad88828901613b3b565b9250506080613bbe88828901613afa565b9150509295509295909350565b7f4f776e61626c653a206e6577206f776e657220697320746865207a65726f206160008201527f6464726573730000000000000000000000000000000000000000000000000000602082015250565b6000613c27602683612cb5565b9150613c3282613bcb565b604082019050919050565b60006020820190508181036000830152613c5681613c1a565b9050919050565b7f4e487b7100000000000000000000000000000000000000000000000000000000600052601260045260246000fd5b6000613c9782612d5c565b9150613ca283612d5c565b925082613cb257613cb1613c5d565b5b828206905092915050565b6000613cc882612d5c565b91507fffffffffffffffffffffffffffffffffffffffffffffffffffffffffffffffff8203613cfa57613cf96138da565b5b600182019050919050565b7f4f776e61626c653a2063616c6c6572206973206e6f7420746865206f776e6572600082015250565b6000613d3b602083612cb5565b9150613d4682613d05565b602082019050919050565b60006020820190508181036000830152613d6a81613d2e565b9050919050565b7f4552433732313a207472616e736665722066726f6d20696e636f72726563742060008201527f6f776e6572000000000000000000000000000000000000000000000000000000602082015250565b6000613dcd602583612cb5565b9150613dd882613d71565b604082019050919050565b60006020820190508181036000830152613dfc81613dc0565b9050919050565b7f4552433732313a207472616e7366657220746f20746865207a65726f2061646460008201527f7265737300000000000000000000000000000000000000000000000000000000602082015250565b6000613e5f602483612cb5565b9150613e6a82613e03565b604082019050919050565b60006020820190508181036000830152613e8e81613e52565b9050919050565b6000613ea082612d5c565b9150613eab83612d5c565b9250828201905080821115613ec357613ec26138da565b5b92915050565b7f45524337323155524953746f726167653a2055524920736574206f66206e6f6e60008201527f6578697374656e7420746f6b656e000000000000000000000000000000000000602082015250565b6000613f25602e83612cb5565b9150613f3082613ec9565b604082019050919050565b60006020820190508181036000830152613f5481613f18565b9050919050565b60008190508160005260206000209050919050565b60006020601f8301049050919050565b600082821b905092915050565b600060088302613fbd7fffffffffffffffffffffffffffffffffffffffffffffffffffffffffffffffff82613f80565b613fc78683613f80565b95508019841693508086168417925050509392505050565b6000613ffa613ff5613ff084612d5c565b6130e2565b612d5c565b9050919050565b6000819050919050565b61401483613fdf565b61402861402082614001565b848454613f8d565b825550505050565b600090565b61403d614030565b61404881848461400b565b505050565b5b8181101561406c57614061600082614035565b60018101905061404e565b5050565b601f8211156140b15761408281613f5b565b61408b84613f70565b8101602085101561409a578190505b6140ae6140a685613f70565b83018261404d565b50505b505050565b600082821c905092915050565b60006140d4600019846008026140b6565b1980831691505092915050565b60006140ed83836140c3565b9150826002028217905092915050565b61410682612caa565b67ffffffffffffffff81111561411f5761411e612eb6565b5b6141298254613609565b614134828285614070565b600060209050601f8311600181146141675760008415614155578287015190505b61415f85826140e1565b8655506141c7565b601f19841661417586613f5b565b60005b8281101561419d57848901518255600182019150602085019450602081019050614178565b868310156141ba57848901516141b6601f8916826140c3565b8355505b6001600288020188555050505b505050505050565b7f537562736372697074696f6e204944206e6f7420736574000000000000000000600082015250565b6000614205601783612cb5565b9150614210826141cf565b602082019050919050565b60006020820190508181036000830152614234816141f8565b9050919050565b6000819050919050565b61424e8161423b565b82525050565b6000819050919050565b600061ffff82169050919050565b600061428761428261427d84614254565b6130e2565b61425e565b9050919050565b6142978161426c565b82525050565b6000819050919050565b60006142c26142bd6142b88461429d565b6130e2565b6130a8565b9050919050565b6142d2816142a7565b82525050565b600060a0820190506142ed6000830188614245565b6142fa6020830187613306565b614307604083018661428e565b61431460608301856130b8565b61432160808301846142c9565b9695505050505050565b60006020828403121561434157614340612be5565b5b600061434f84828501613b3b565b91505092915050565b7f4552433732313a20617070726f766520746f2063616c6c657200000000000000600082015250565b600061438e601983612cb5565b915061439982614358565b602082019050919050565b600060208201905081810360008301526143bd81614381565b9050919050565b7f4552433732313a207472616e7366657220746f206e6f6e20455243373231526560008201527f63656976657220696d706c656d656e7465720000000000000000000000000000602082015250565b6000614420603283612cb5565b915061442b826143c4565b604082019050919050565b6000602082019050818103600083015261444f81614413565b9050919050565b600081905092915050565b600061446c82612caa565b6144768185614456565b9350614486818560208601612cc6565b80840191505092915050565b600061449e8285614461565b91506144aa8284614461565b91508190509392505050565b60006080820190506144cb6000830187612df1565b6144d86020830186612df1565b6144e56040830185612e87565b81810360608301526144f7818461324d565b905095945050505050565b60008151905061451181612c1b565b92915050565b60006020828403121561452d5761452c612be5565b5b600061453b84828501614502565b91505092915050565b7f4552433732313a206d696e7420746f20746865207a65726f2061646472657373600082015250565b600061457a602083612cb5565b915061458582614544565b602082019050919050565b600060208201905081810360008301526145a98161456d565b9050919050565b7f4552433732313a20746f6b656e20616c7265616479206d696e74656400000000600082015250565b60006145e6601c83612cb5565b91506145f1826145b0565b602082019050919050565b60006020820190508181036000830152614615816145d9565b9050919050565b600061462782612d5c565b915061463283612d5c565b92508261464257614641613c5d565b5b828204905092915050565b7f4e487b7100000000000000000000000000000000000000000000000000000000600052603160045260246000fdfea26469706673582212208498e4b1102b2aab1d5b86c1b9e4b01bf09ad82af63266ef456c522751bb7aa664736f6c6343000810003368747470733a2f2f697066732e696f2f697066732f516d646355526d4e316b4545744b676e626b564a4a3868726d73535748705a764c6b5267734b4b6f6957765739673f66696c656e616d653d73696d706c655f62756c6c2e6a736f6e68747470733a2f2f697066732e696f2f697066732f516d5258796669336f4e5a43756244786956467265336b4c5a3858654774367051736e4151525a37616b68534e733f66696c656e616d653d67616d65725f62756c6c2e6a736f6e68747470733a2f2f697066732e696f2f697066732f516d624b68425856576d777259735450465966726f52324e374e41656b414d78485556673243576b73376939716a3f66696c656e616d653d73696d706c655f626561722e6a736f6e68747470733a2f2f697066732e696f2f697066732f516d6478394878374643445a474578796a4c52367659636e75745552384b68425a426e5a6641504869556f6d6d4e3f66696c656e616d653d6265616e69655f626561722e6a736f6e68747470733a2f2f697066732e696f2f697066732f516d524a5646654d7274595332435556554d3263484a70425635615832787572706e73665a784c545451626944333f66696c656e616d653d70617274795f62756c6c2e6a736f6e68747470733a2f2f697066732e696f2f697066732f516d54564c79545375694b4755456d6238384267584733714e4338596770485a6946626a4872584b4833514845753f66696c656e616d653d636f6f6c696f5f626561722e6a736f6e",
  "immutableReferences": {
    "49": [
      {
        "length": 32,
        "start": 2292
      },
      {
        "length": 32,
        "start": 2376
      }
    ]
  },
  "source": "pragma solidity ^0.8.4;\n\nimport \"@openzeppelin/contracts/token/ERC721/ERC721.sol\";\nimport \"@openzeppelin/contracts/token/ERC721/extensions/ERC721Enumerable.sol\";\nimport \"@openzeppelin/contracts/token/ERC721/extensions/ERC721URIStorage.sol\";\nimport \"@openzeppelin/contracts/access/Ownable.sol\";\nimport \"@openzeppelin/contracts/utils/Counters.sol\";\nimport \"@openzeppelin/contracts/utils/Strings.sol\";\n\nimport \"@chainlink/contracts/src/v0.8/interfaces/AggregatorV3Interface.sol\";\nimport \"@chainlink/contracts/src/v0.8/KeeperCompatible.sol\";\nimport \"@chainlink/contracts/src/v0.8/VRFConsumerBaseV2.sol\";\nimport \"@chainlink/contracts/src/v0.8/interfaces/VRFCoordinatorV2Interface.sol\";\n\n\ncontract BullBear is ERC721, ERC721Enumerable, ERC721URIStorage, Ownable, KeeperCompatibleInterface, VRFConsumerBaseV2 {\n    using Counters for Counters.Counter;\n\n    Counters.Counter private _tokenIdCounter;\n    AggregatorV3Interface public priceFeed;\n\n    // VRF\n    VRFCoordinatorV2Interface public COORDINATOR;\n    uint256[] public s_randomWords;\n    uint256 public s_requestId;\n    uint32 public callbackGasLimit = 50000000;\n    uint64 public s_subscriptionId = 21729;\n    bytes32 keyhash =  0xd89b2bf150e3b9e13446986e571fb9cab24b13cea0a43ea20a6049a85cc807cc; // keyhash for Rinkeby https://docs.chain.link/docs/vrf-contracts/#rinkeby-testnet\n    address vrfCoordinator = 0x6168499c0cFfCaCD319c818142124B7A15E857ab;\n    uint public /*immutable*/ interval;\n    uint public lastTimeStamp;\n    int256 public currentPrice;\n\n    enum MarketTrend{BULL, BEAR} \n    MarketTrend public currentMarketTrend = MarketTrend.BULL;    \n    \n    // URIs for the NFT graphics\n\n    string[] bullUris = [\n        \"https://ipfs.io/ipfs/QmdcURmN1kEEtKgnbkVJJ8hrmsSWHpZvLkRgsKKoiWvW9g?filename=simple_bull.json\",\n        \"https://ipfs.io/ipfs/QmRXyfi3oNZCubDxiVFre3kLZ8XeGt6pQsnAQRZ7akhSNs?filename=gamer_bull.json\",\n        \"https://ipfs.io/ipfs/QmRJVFeMrtYS2CUVUM2cHJpBV5aX2xurpnsfZxLTTQbiD3?filename=party_bull.json\"\n\n    ];\n\n    string[] bearUris = [\n        \"https://ipfs.io/ipfs/QmbKhBXVWmwrYsTPFYfroR2N7NAekAMxHUVg2CWks7i9qj?filename=simple_bear.json\",\n        \"https://ipfs.io/ipfs/Qmdx9Hx7FCDZGExyjLR6vYcnutUR8KhBZBnZfAPHiUommN?filename=beanie_bear.json\",\n        \"https://ipfs.io/ipfs/QmTVLyTSuiKGUEmb88BgXG3qNC8YgpHZiFbjHrXKH3QHEu?filename=coolio_bear.json\"\n    ];\n\n    event TokensUpdated(string marketTrend);\n    \n    \n    constructor(uint updateInterval, address _priceFeed) ERC721(\"BullBear\", \"BB\") VRFConsumerBaseV2(vrfCoordinator) {\n        // Sets the keeper update interval\n        interval = updateInterval;\n        lastTimeStamp = block.timestamp;\n        \n        /* \n        Set the price feed address to BTC/USD price feed contract addrss on Rinkeby Test Net:\n        https://rinkeby.etherscan.io/address/0xECe365B379E1dD183B20fc5f022230C044d51404\n         */\n        \n        priceFeed = AggregatorV3Interface(_priceFeed);\n\n        currentPrice = getLatestPrice();\n        COORDINATOR = VRFCoordinatorV2Interface(vrfCoordinator);\n    }\n\n    function safeMint(address to) public onlyOwner {\n        uint256 tokenId = _tokenIdCounter.current();\n        _tokenIdCounter.increment();\n        _safeMint(to, tokenId);\n        \n        \n        string memory defaultUri = bullUris[0];\n\n        _setTokenURI(tokenId, defaultUri);\n        \n    }\n\n\n\n    function checkUpkeep (bytes calldata /*checkData*/) external view returns (bool upkeepNeeded, bytes memory /*performData*/) {\n        upkeepNeeded = (block.timestamp - lastTimeStamp) > interval;\n    }\n\n    function performUpkeep(bytes calldata /*performData*/) external override{\n        if((block.timestamp - lastTimeStamp) > interval) {\n            lastTimeStamp = block.timestamp;\n            int latestPrice = getLatestPrice();\n\n            if(latestPrice == currentPrice){\n                return;\n            }\n            \n            if(latestPrice < currentPrice){\n                currentMarketTrend = MarketTrend.BEAR;\n            }\n\n            if(latestPrice > currentPrice){\n                 currentMarketTrend = MarketTrend.BULL;\n            }\n\n            requestRandomnessForNFTUris();\n\n            currentPrice = latestPrice;\n        }\n    }\n\n\n    function getLatestPrice() public view returns (int256){\n        (\n            /*uint80 roundID*/,\n            int price,\n            /*uint startedAt*/,\n            /*uint timeStamp*/,\n            /*uint80 answeredInRound*/\n        ) = priceFeed.latestRoundData();\n\n        return price;\n    }\n\n    function requestRandomnessForNFTUris() internal {\n        require(s_subscriptionId != 0, \"Subscription ID not set\"); \n\n        // Will revert if subscription is not set and funded.\n        s_requestId = COORDINATOR.requestRandomWords(\n            keyhash,\n            s_subscriptionId, \n            3,\n            callbackGasLimit,\n            1 \n        );\n    }\n\n    function fulfillRandomWords(\n        uint256, /* requestId */\n        uint256[] memory randomWords\n    )   internal override {\n    s_randomWords = randomWords;\n    \n\n \n    \n        string[] memory urisForTrend = currentMarketTrend == MarketTrend.BULL ? bullUris : bearUris;\n        uint256 idx = randomWords[0] % urisForTrend.length; // use modulo to choose a random index.\n\n\n        for (uint i = 0; i < _tokenIdCounter.current() ; i++) {\n            _setTokenURI(i, urisForTrend[idx]);\n        } \n\n        string memory trend = currentMarketTrend == MarketTrend.BULL ? \"bullish\" : \"bearish\";\n    \n        emit TokensUpdated(trend);\n    }\n\n\n    // Helper function\n    \n    function compareStrings(string memory a, string memory b) internal pure returns (bool){\n        return (keccak256(abi.encodePacked(a)) == keccak256(abi.encodePacked(b)));\n    }\n    \n    function setInterval(uint256 newInterval) public onlyOwner {\n        interval = newInterval;\n    }\n\n    function setPriceFeed(address newFeed) public onlyOwner {\n        priceFeed = AggregatorV3Interface(newFeed);\n    }\n    \n    \n    \n    function _beforeTokenTransfer(address from, address to, uint256 tokenId)\n        internal\n        override(ERC721, ERC721Enumerable)\n    {\n        super._beforeTokenTransfer(from, to, tokenId);\n    }\n\n    function _burn(uint256 tokenId) internal override(ERC721, ERC721URIStorage) {\n        super._burn(tokenId);\n    }\n\n    function tokenURI(uint256 tokenId)\n        public\n        view\n        override(ERC721, ERC721URIStorage)\n        returns (string memory)\n    {\n        return super.tokenURI(tokenId);\n    }\n\n    function supportsInterface(bytes4 interfaceId)\n        public\n        view\n        override(ERC721, ERC721Enumerable)\n        returns (bool)\n    {\n        return super.supportsInterface(interfaceId);\n    }\n}",
  "sourcePath": "/home/adi/solidity/BullBearNFT/contracts/BullBear.sol",
  "compiler": {
    "name": "solc",
    "version": "0.8.16+commit.07a7930e.Emscripten.clang"
  },
  "schemaVersion": "3.4.9",
  "updatedAt": "2022-09-09T03:39:05.355Z",
  "devdoc": {
    "kind": "dev",
    "methods": {
      "approve(address,uint256)": {
        "details": "See {IERC721-approve}."
      },
      "balanceOf(address)": {
        "details": "See {IERC721-balanceOf}."
      },
      "getApproved(uint256)": {
        "details": "See {IERC721-getApproved}."
      },
      "isApprovedForAll(address,address)": {
        "details": "See {IERC721-isApprovedForAll}."
      },
      "name()": {
        "details": "See {IERC721Metadata-name}."
      },
      "owner()": {
        "details": "Returns the address of the current owner."
      },
      "ownerOf(uint256)": {
        "details": "See {IERC721-ownerOf}."
      },
      "renounceOwnership()": {
        "details": "Leaves the contract without owner. It will not be possible to call `onlyOwner` functions anymore. Can only be called by the current owner. NOTE: Renouncing ownership will leave the contract without an owner, thereby removing any functionality that is only available to the owner."
      },
      "safeTransferFrom(address,address,uint256)": {
        "details": "See {IERC721-safeTransferFrom}."
      },
      "safeTransferFrom(address,address,uint256,bytes)": {
        "details": "See {IERC721-safeTransferFrom}."
      },
      "setApprovalForAll(address,bool)": {
        "details": "See {IERC721-setApprovalForAll}."
      },
      "symbol()": {
        "details": "See {IERC721Metadata-symbol}."
      },
      "tokenByIndex(uint256)": {
        "details": "See {IERC721Enumerable-tokenByIndex}."
      },
      "tokenOfOwnerByIndex(address,uint256)": {
        "details": "See {IERC721Enumerable-tokenOfOwnerByIndex}."
      },
      "totalSupply()": {
        "details": "See {IERC721Enumerable-totalSupply}."
      },
      "transferFrom(address,address,uint256)": {
        "details": "See {IERC721-transferFrom}."
      },
      "transferOwnership(address)": {
        "details": "Transfers ownership of the contract to a new account (`newOwner`). Can only be called by the current owner."
      }
    },
    "version": 1
  },
  "userdoc": {
    "kind": "user",
    "methods": {},
    "version": 1
  }
}